{
  "_format": "hh-sol-artifact-1",
  "contractName": "NFT",
  "sourceName": "contracts/NFT.sol",
  "abi": [
    {
      "inputs": [],
      "stateMutability": "nonpayable",
      "type": "constructor"
    },
    {
      "anonymous": false,
      "inputs": [
        {
          "indexed": true,
          "internalType": "address",
          "name": "owner",
          "type": "address"
        },
        {
          "indexed": true,
          "internalType": "address",
          "name": "approved",
          "type": "address"
        },
        {
          "indexed": true,
          "internalType": "uint256",
          "name": "tokenId",
          "type": "uint256"
        }
      ],
      "name": "Approval",
      "type": "event"
    },
    {
      "anonymous": false,
      "inputs": [
        {
          "indexed": true,
          "internalType": "address",
          "name": "owner",
          "type": "address"
        },
        {
          "indexed": true,
          "internalType": "address",
          "name": "operator",
          "type": "address"
        },
        {
          "indexed": false,
          "internalType": "bool",
          "name": "approved",
          "type": "bool"
        }
      ],
      "name": "ApprovalForAll",
      "type": "event"
    },
    {
      "anonymous": false,
      "inputs": [
        {
          "indexed": true,
          "internalType": "address",
          "name": "from",
          "type": "address"
        },
        {
          "indexed": true,
          "internalType": "address",
          "name": "to",
          "type": "address"
        },
        {
          "indexed": true,
          "internalType": "uint256",
          "name": "tokenId",
          "type": "uint256"
        }
      ],
      "name": "Transfer",
      "type": "event"
    },
    {
      "inputs": [
        {
          "internalType": "address",
          "name": "to",
          "type": "address"
        },
        {
          "internalType": "uint256",
          "name": "tokenId",
          "type": "uint256"
        }
      ],
      "name": "approve",
      "outputs": [],
      "stateMutability": "nonpayable",
      "type": "function"
    },
    {
      "inputs": [
        {
          "internalType": "address",
          "name": "owner",
          "type": "address"
        }
      ],
      "name": "balanceOf",
      "outputs": [
        {
          "internalType": "uint256",
          "name": "",
          "type": "uint256"
        }
      ],
      "stateMutability": "view",
      "type": "function"
    },
    {
      "inputs": [
        {
          "internalType": "uint256",
          "name": "tokenId",
          "type": "uint256"
        }
      ],
      "name": "getApproved",
      "outputs": [
        {
          "internalType": "address",
          "name": "",
          "type": "address"
        }
      ],
      "stateMutability": "view",
      "type": "function"
    },
    {
      "inputs": [
        {
          "internalType": "address",
          "name": "_owner",
          "type": "address"
        },
        {
          "internalType": "address",
          "name": "_operator",
          "type": "address"
        }
      ],
      "name": "isApprovedForAll",
      "outputs": [
        {
          "internalType": "bool",
          "name": "isOperator",
          "type": "bool"
        }
      ],
      "stateMutability": "view",
      "type": "function"
    },
    {
      "inputs": [
        {
          "internalType": "address",
          "name": "recipient",
          "type": "address"
        }
      ],
      "name": "mintTo",
      "outputs": [
        {
          "internalType": "uint256",
          "name": "",
          "type": "uint256"
        }
      ],
      "stateMutability": "nonpayable",
      "type": "function"
    },
    {
      "inputs": [],
      "name": "name",
      "outputs": [
        {
          "internalType": "string",
          "name": "",
          "type": "string"
        }
      ],
      "stateMutability": "view",
      "type": "function"
    },
    {
      "inputs": [
        {
          "internalType": "uint256",
          "name": "tokenId",
          "type": "uint256"
        }
      ],
      "name": "ownerOf",
      "outputs": [
        {
          "internalType": "address",
          "name": "",
          "type": "address"
        }
      ],
      "stateMutability": "view",
      "type": "function"
    },
    {
      "inputs": [
        {
          "internalType": "address",
          "name": "from",
          "type": "address"
        },
        {
          "internalType": "address",
          "name": "to",
          "type": "address"
        },
        {
          "internalType": "uint256",
          "name": "tokenId",
          "type": "uint256"
        }
      ],
      "name": "safeTransferFrom",
      "outputs": [],
      "stateMutability": "nonpayable",
      "type": "function"
    },
    {
      "inputs": [
        {
          "internalType": "address",
          "name": "from",
          "type": "address"
        },
        {
          "internalType": "address",
          "name": "to",
          "type": "address"
        },
        {
          "internalType": "uint256",
          "name": "tokenId",
          "type": "uint256"
        },
        {
          "internalType": "bytes",
          "name": "data",
          "type": "bytes"
        }
      ],
      "name": "safeTransferFrom",
      "outputs": [],
      "stateMutability": "nonpayable",
      "type": "function"
    },
    {
      "inputs": [
        {
          "internalType": "address",
          "name": "operator",
          "type": "address"
        },
        {
          "internalType": "bool",
          "name": "approved",
          "type": "bool"
        }
      ],
      "name": "setApprovalForAll",
      "outputs": [],
      "stateMutability": "nonpayable",
      "type": "function"
    },
    {
      "inputs": [
        {
          "internalType": "bytes4",
          "name": "interfaceId",
          "type": "bytes4"
        }
      ],
      "name": "supportsInterface",
      "outputs": [
        {
          "internalType": "bool",
          "name": "",
          "type": "bool"
        }
      ],
      "stateMutability": "view",
      "type": "function"
    },
    {
      "inputs": [],
      "name": "symbol",
      "outputs": [
        {
          "internalType": "string",
          "name": "",
          "type": "string"
        }
      ],
      "stateMutability": "view",
      "type": "function"
    },
    {
      "inputs": [
        {
          "internalType": "uint256",
          "name": "tokenId",
          "type": "uint256"
        }
      ],
      "name": "tokenURI",
      "outputs": [
        {
          "internalType": "string",
          "name": "",
          "type": "string"
        }
      ],
      "stateMutability": "view",
      "type": "function"
    },
    {
      "inputs": [
        {
          "internalType": "address",
          "name": "from",
          "type": "address"
        },
        {
          "internalType": "address",
          "name": "to",
          "type": "address"
        },
        {
          "internalType": "uint256",
          "name": "tokenId",
          "type": "uint256"
        }
      ],
      "name": "transferFrom",
      "outputs": [],
      "stateMutability": "nonpayable",
      "type": "function"
    }
  ],
  "bytecode": "0x60806040523480156200001157600080fd5b506040518060400160405280601681526020017f4d617474735365636f6e644e46545475746f7269616c000000000000000000008152506040518060400160405280600581526020017f4d534e4654000000000000000000000000000000000000000000000000000000815250816000908051906020019062000096929190620000b8565b508060019080519060200190620000af929190620000b8565b505050620001cd565b828054620000c69062000168565b90600052602060002090601f016020900481019282620000ea576000855562000136565b82601f106200010557805160ff191683800117855562000136565b8280016001018555821562000136579182015b828111156200013557825182559160200191906001019062000118565b5b50905062000145919062000149565b5090565b5b80821115620001645760008160009055506001016200014a565b5090565b600060028204905060018216806200018157607f821691505b602082108114156200019857620001976200019e565b5b50919050565b7f4e487b7100000000000000000000000000000000000000000000000000000000600052602260045260246000fd5b61265480620001dd6000396000f3fe608060405234801561001057600080fd5b50600436106100ea5760003560e01c806370a082311161008c578063a22cb46511610066578063a22cb4651461026f578063b88d4fde1461028b578063c87b56dd146102a7578063e985e9c5146102d7576100ea565b806370a08231146101f1578063755edd171461022157806395d89b4114610251576100ea565b8063095ea7b3116100c8578063095ea7b31461016d57806323b872dd1461018957806342842e0e146101a55780636352211e146101c1576100ea565b806301ffc9a7146100ef57806306fdde031461011f578063081812fc1461013d575b600080fd5b61010960048036038101906101049190611a32565b610307565b6040516101169190611d89565b60405180910390f35b6101276103e9565b6040516101349190611da4565b60405180910390f35b61015760048036038101906101529190611a84565b61047b565b6040516101649190611d22565b60405180910390f35b610187600480360381019061018291906119f6565b6104c1565b005b6101a3600480360381019061019e91906118f0565b6105d9565b005b6101bf60048036038101906101ba91906118f0565b610639565b005b6101db60048036038101906101d69190611a84565b610659565b6040516101e89190611d22565b60405180910390f35b61020b6004803603810190610206919061188b565b61070b565b6040516102189190611f26565b60405180910390f35b61023b6004803603810190610236919061188b565b6107c3565b6040516102489190611f26565b60405180910390f35b6102596107f0565b6040516102669190611da4565b60405180910390f35b610289600480360381019061028491906119ba565b610882565b005b6102a560048036038101906102a0919061193f565b610898565b005b6102c160048036038101906102bc9190611a84565b6108fa565b6040516102ce9190611da4565b60405180910390f35b6102f160048036038101906102ec91906118b4565b610962565b6040516102fe9190611d89565b60405180910390f35b60007f80ac58cd000000000000000000000000000000000000000000000000000000007bffffffffffffffffffffffffffffffffffffffffffffffffffffffff1916827bffffffffffffffffffffffffffffffffffffffffffffffffffffffff191614806103d257507f5b5e139f000000000000000000000000000000000000000000000000000000007bffffffffffffffffffffffffffffffffffffffffffffffffffffffff1916827bffffffffffffffffffffffffffffffffffffffffffffffffffffffff1916145b806103e257506103e1826109c8565b5b9050919050565b6060600080546103f89061214b565b80601f01602080910402602001604051908101604052809291908181526020018280546104249061214b565b80156104715780601f1061044657610100808354040283529160200191610471565b820191906000526020600020905b81548152906001019060200180831161045457829003601f168201915b5050505050905090565b600061048682610a32565b6004600083815260200190815260200160002060009054906101000a900473ffffffffffffffffffffffffffffffffffffffff169050919050565b60006104cc82610659565b90508073ffffffffffffffffffffffffffffffffffffffff168373ffffffffffffffffffffffffffffffffffffffff16141561053d576040517f08c379a000000000000000000000000000000000000000000000000000000000815260040161053490611ee6565b60405180910390fd5b8073ffffffffffffffffffffffffffffffffffffffff1661055c610a7d565b73ffffffffffffffffffffffffffffffffffffffff16148061058b575061058a81610585610a7d565b610962565b5b6105ca576040517f08c379a00000000000000000000000000000000000000000000000000000000081526004016105c190611e86565b60405180910390fd5b6105d48383610a8c565b505050565b6105ea6105e4610a7d565b82610b45565b610629576040517f08c379a000000000000000000000000000000000000000000000000000000000815260040161062090611f06565b60405180910390fd5b610634838383610bda565b505050565b61065483838360405180602001604052806000815250610898565b505050565b6000806002600084815260200190815260200160002060009054906101000a900473ffffffffffffffffffffffffffffffffffffffff169050600073ffffffffffffffffffffffffffffffffffffffff168173ffffffffffffffffffffffffffffffffffffffff161415610702576040517f08c379a00000000000000000000000000000000000000000000000000000000081526004016106f990611ec6565b60405180910390fd5b80915050919050565b60008073ffffffffffffffffffffffffffffffffffffffff168273ffffffffffffffffffffffffffffffffffffffff16141561077c576040517f08c379a000000000000000000000000000000000000000000000000000000000815260040161077390611e66565b60405180910390fd5b600360008373ffffffffffffffffffffffffffffffffffffffff1673ffffffffffffffffffffffffffffffffffffffff168152602001908152602001600020549050919050565b60006107cf6006610e41565b60006107db6006610e57565b90506107e78382610e65565b80915050919050565b6060600180546107ff9061214b565b80601f016020809104026020016040519081016040528092919081815260200182805461082b9061214b565b80156108785780601f1061084d57610100808354040283529160200191610878565b820191906000526020600020905b81548152906001019060200180831161085b57829003601f168201915b5050505050905090565b61089461088d610a7d565b8383610e83565b5050565b6108a96108a3610a7d565b83610b45565b6108e8576040517f08c379a00000000000000000000000000000000000000000000000000000000081526004016108df90611f06565b60405180910390fd5b6108f484848484610ff0565b50505050565b606061090582610a32565b600061090f61104c565b9050600081511161092f576040518060200160405280600081525061095a565b8061093984611063565b60405160200161094a929190611cfe565b6040516020818303038152906040525b915050919050565b600073ff7ca10af37178bdd056628ef42fd7f799fac77c73ffffffffffffffffffffffffffffffffffffffff168273ffffffffffffffffffffffffffffffffffffffff1614156109b557600190506109c2565b6109bf8383611210565b90505b92915050565b60007f01ffc9a7000000000000000000000000000000000000000000000000000000007bffffffffffffffffffffffffffffffffffffffffffffffffffffffff1916827bffffffffffffffffffffffffffffffffffffffffffffffffffffffff1916149050919050565b610a3b816112a4565b610a7a576040517f08c379a0000000000000000000000000000000000000000000000000000000008152600401610a7190611ec6565b60405180910390fd5b50565b6000610a87611310565b905090565b816004600083815260200190815260200160002060006101000a81548173ffffffffffffffffffffffffffffffffffffffff021916908373ffffffffffffffffffffffffffffffffffffffff160217905550808273ffffffffffffffffffffffffffffffffffffffff16610aff83610659565b73ffffffffffffffffffffffffffffffffffffffff167f8c5be1e5ebec7d5bd14f71427d1e84f3dd0314c0f7b2291e5b200ac8c7c3b92560405160405180910390a45050565b600080610b5183610659565b90508073ffffffffffffffffffffffffffffffffffffffff168473ffffffffffffffffffffffffffffffffffffffff161480610b935750610b928185610962565b5b80610bd157508373ffffffffffffffffffffffffffffffffffffffff16610bb98461047b565b73ffffffffffffffffffffffffffffffffffffffff16145b91505092915050565b8273ffffffffffffffffffffffffffffffffffffffff16610bfa82610659565b73ffffffffffffffffffffffffffffffffffffffff1614610c50576040517f08c379a0000000000000000000000000000000000000000000000000000000008152600401610c4790611de6565b60405180910390fd5b600073ffffffffffffffffffffffffffffffffffffffff168273ffffffffffffffffffffffffffffffffffffffff161415610cc0576040517f08c379a0000000000000000000000000000000000000000000000000000000008152600401610cb790611e26565b60405180910390fd5b610ccb8383836113c1565b610cd6600082610a8c565b6001600360008573ffffffffffffffffffffffffffffffffffffffff1673ffffffffffffffffffffffffffffffffffffffff1681526020019081526020016000206000828254610d269190612061565b925050819055506001600360008473ffffffffffffffffffffffffffffffffffffffff1673ffffffffffffffffffffffffffffffffffffffff1681526020019081526020016000206000828254610d7d9190611fda565b92505081905550816002600083815260200190815260200160002060006101000a81548173ffffffffffffffffffffffffffffffffffffffff021916908373ffffffffffffffffffffffffffffffffffffffff160217905550808273ffffffffffffffffffffffffffffffffffffffff168473ffffffffffffffffffffffffffffffffffffffff167fddf252ad1be2c89b69c2b068fc378daa952ba7f163c4a11628f55a4df523b3ef60405160405180910390a4610e3c8383836113c6565b505050565b6001816000016000828254019250508190555050565b600081600001549050919050565b610e7f8282604051806020016040528060008152506113cb565b5050565b8173ffffffffffffffffffffffffffffffffffffffff168373ffffffffffffffffffffffffffffffffffffffff161415610ef2576040517f08c379a0000000000000000000000000000000000000000000000000000000008152600401610ee990611e46565b60405180910390fd5b80600560008573ffffffffffffffffffffffffffffffffffffffff1673ffffffffffffffffffffffffffffffffffffffff16815260200190815260200160002060008473ffffffffffffffffffffffffffffffffffffffff1673ffffffffffffffffffffffffffffffffffffffff16815260200190815260200160002060006101000a81548160ff0219169083151502179055508173ffffffffffffffffffffffffffffffffffffffff168373ffffffffffffffffffffffffffffffffffffffff167f17307eab39ab6107e8899845ad3d59bd9653f200f220920489ca2b5937696c3183604051610fe39190611d89565b60405180910390a3505050565b610ffb848484610bda565b61100784848484611426565b611046576040517f08c379a000000000000000000000000000000000000000000000000000000000815260040161103d90611dc6565b60405180910390fd5b50505050565b606060405180602001604052806000815250905090565b606060008214156110ab576040518060400160405280600181526020017f3000000000000000000000000000000000000000000000000000000000000000815250905061120b565b600082905060005b600082146110dd5780806110c6906121ae565b915050600a826110d69190612030565b91506110b3565b60008167ffffffffffffffff81111561111f577f4e487b7100000000000000000000000000000000000000000000000000000000600052604160045260246000fd5b6040519080825280601f01601f1916602001820160405280156111515781602001600182028036833780820191505090505b5090505b600085146112045760018261116a9190612061565b9150600a8561117991906121f7565b60306111859190611fda565b60f81b8183815181106111c1577f4e487b7100000000000000000000000000000000000000000000000000000000600052603260045260246000fd5b60200101907effffffffffffffffffffffffffffffffffffffffffffffffffffffffffffff1916908160001a905350600a856111fd9190612030565b9450611155565b8093505050505b919050565b6000600560008473ffffffffffffffffffffffffffffffffffffffff1673ffffffffffffffffffffffffffffffffffffffff16815260200190815260200160002060008373ffffffffffffffffffffffffffffffffffffffff1673ffffffffffffffffffffffffffffffffffffffff16815260200190815260200160002060009054906101000a900460ff16905092915050565b60008073ffffffffffffffffffffffffffffffffffffffff166002600084815260200190815260200160002060009054906101000a900473ffffffffffffffffffffffffffffffffffffffff1673ffffffffffffffffffffffffffffffffffffffff1614159050919050565b60003073ffffffffffffffffffffffffffffffffffffffff163373ffffffffffffffffffffffffffffffffffffffff1614156113ba57600080368080601f016020809104026020016040519081016040528093929190818152602001838380828437600081840152601f19601f820116905080830192505050505050509050600080369050905073ffffffffffffffffffffffffffffffffffffffff8183015116925050506113be565b3390505b90565b505050565b505050565b6113d583836115bd565b6113e26000848484611426565b611421576040517f08c379a000000000000000000000000000000000000000000000000000000000815260040161141890611dc6565b60405180910390fd5b505050565b60006114478473ffffffffffffffffffffffffffffffffffffffff16611797565b156115b0578373ffffffffffffffffffffffffffffffffffffffff1663150b7a02611470610a7d565b8786866040518563ffffffff1660e01b81526004016114929493929190611d3d565b602060405180830381600087803b1580156114ac57600080fd5b505af19250505080156114dd57506040513d601f19601f820116820180604052508101906114da9190611a5b565b60015b611560573d806000811461150d576040519150601f19603f3d011682016040523d82523d6000602084013e611512565b606091505b50600081511415611558576040517f08c379a000000000000000000000000000000000000000000000000000000000815260040161154f90611dc6565b60405180910390fd5b805181602001fd5b63150b7a0260e01b7bffffffffffffffffffffffffffffffffffffffffffffffffffffffff1916817bffffffffffffffffffffffffffffffffffffffffffffffffffffffff1916149150506115b5565b600190505b949350505050565b600073ffffffffffffffffffffffffffffffffffffffff168273ffffffffffffffffffffffffffffffffffffffff16141561162d576040517f08c379a000000000000000000000000000000000000000000000000000000000815260040161162490611ea6565b60405180910390fd5b611636816112a4565b15611676576040517f08c379a000000000000000000000000000000000000000000000000000000000815260040161166d90611e06565b60405180910390fd5b611682600083836113c1565b6001600360008473ffffffffffffffffffffffffffffffffffffffff1673ffffffffffffffffffffffffffffffffffffffff16815260200190815260200160002060008282546116d29190611fda565b92505081905550816002600083815260200190815260200160002060006101000a81548173ffffffffffffffffffffffffffffffffffffffff021916908373ffffffffffffffffffffffffffffffffffffffff160217905550808273ffffffffffffffffffffffffffffffffffffffff16600073ffffffffffffffffffffffffffffffffffffffff167fddf252ad1be2c89b69c2b068fc378daa952ba7f163c4a11628f55a4df523b3ef60405160405180910390a4611793600083836113c6565b5050565b6000808273ffffffffffffffffffffffffffffffffffffffff163b119050919050565b60006117cd6117c884611f66565b611f41565b9050828152602081018484840111156117e557600080fd5b6117f0848285612109565b509392505050565b600081359050611807816125c2565b92915050565b60008135905061181c816125d9565b92915050565b600081359050611831816125f0565b92915050565b600081519050611846816125f0565b92915050565b600082601f83011261185d57600080fd5b813561186d8482602086016117ba565b91505092915050565b60008135905061188581612607565b92915050565b60006020828403121561189d57600080fd5b60006118ab848285016117f8565b91505092915050565b600080604083850312156118c757600080fd5b60006118d5858286016117f8565b92505060206118e6858286016117f8565b9150509250929050565b60008060006060848603121561190557600080fd5b6000611913868287016117f8565b9350506020611924868287016117f8565b925050604061193586828701611876565b9150509250925092565b6000806000806080858703121561195557600080fd5b6000611963878288016117f8565b9450506020611974878288016117f8565b935050604061198587828801611876565b925050606085013567ffffffffffffffff8111156119a257600080fd5b6119ae8782880161184c565b91505092959194509250565b600080604083850312156119cd57600080fd5b60006119db858286016117f8565b92505060206119ec8582860161180d565b9150509250929050565b60008060408385031215611a0957600080fd5b6000611a17858286016117f8565b9250506020611a2885828601611876565b9150509250929050565b600060208284031215611a4457600080fd5b6000611a5284828501611822565b91505092915050565b600060208284031215611a6d57600080fd5b6000611a7b84828501611837565b91505092915050565b600060208284031215611a9657600080fd5b6000611aa484828501611876565b91505092915050565b611ab681612095565b82525050565b611ac5816120a7565b82525050565b6000611ad682611f97565b611ae08185611fad565b9350611af0818560208601612118565b611af9816122e4565b840191505092915050565b6000611b0f82611fa2565b611b198185611fbe565b9350611b29818560208601612118565b611b32816122e4565b840191505092915050565b6000611b4882611fa2565b611b528185611fcf565b9350611b62818560208601612118565b80840191505092915050565b6000611b7b603283611fbe565b9150611b86826122f5565b604082019050919050565b6000611b9e602583611fbe565b9150611ba982612344565b604082019050919050565b6000611bc1601c83611fbe565b9150611bcc82612393565b602082019050919050565b6000611be4602483611fbe565b9150611bef826123bc565b604082019050919050565b6000611c07601983611fbe565b9150611c128261240b565b602082019050919050565b6000611c2a602983611fbe565b9150611c3582612434565b604082019050919050565b6000611c4d603e83611fbe565b9150611c5882612483565b604082019050919050565b6000611c70602083611fbe565b9150611c7b826124d2565b602082019050919050565b6000611c93601883611fbe565b9150611c9e826124fb565b602082019050919050565b6000611cb6602183611fbe565b9150611cc182612524565b604082019050919050565b6000611cd9602e83611fbe565b9150611ce482612573565b604082019050919050565b611cf8816120ff565b82525050565b6000611d0a8285611b3d565b9150611d168284611b3d565b91508190509392505050565b6000602082019050611d376000830184611aad565b92915050565b6000608082019050611d526000830187611aad565b611d5f6020830186611aad565b611d6c6040830185611cef565b8181036060830152611d7e8184611acb565b905095945050505050565b6000602082019050611d9e6000830184611abc565b92915050565b60006020820190508181036000830152611dbe8184611b04565b905092915050565b60006020820190508181036000830152611ddf81611b6e565b9050919050565b60006020820190508181036000830152611dff81611b91565b9050919050565b60006020820190508181036000830152611e1f81611bb4565b9050919050565b60006020820190508181036000830152611e3f81611bd7565b9050919050565b60006020820190508181036000830152611e5f81611bfa565b9050919050565b60006020820190508181036000830152611e7f81611c1d565b9050919050565b60006020820190508181036000830152611e9f81611c40565b9050919050565b60006020820190508181036000830152611ebf81611c63565b9050919050565b60006020820190508181036000830152611edf81611c86565b9050919050565b60006020820190508181036000830152611eff81611ca9565b9050919050565b60006020820190508181036000830152611f1f81611ccc565b9050919050565b6000602082019050611f3b6000830184611cef565b92915050565b6000611f4b611f5c565b9050611f57828261217d565b919050565b6000604051905090565b600067ffffffffffffffff821115611f8157611f806122b5565b5b611f8a826122e4565b9050602081019050919050565b600081519050919050565b600081519050919050565b600082825260208201905092915050565b600082825260208201905092915050565b600081905092915050565b6000611fe5826120ff565b9150611ff0836120ff565b9250827fffffffffffffffffffffffffffffffffffffffffffffffffffffffffffffffff0382111561202557612024612228565b5b828201905092915050565b600061203b826120ff565b9150612046836120ff565b92508261205657612055612257565b5b828204905092915050565b600061206c826120ff565b9150612077836120ff565b92508282101561208a57612089612228565b5b828203905092915050565b60006120a0826120df565b9050919050565b60008115159050919050565b60007fffffffff0000000000000000000000000000000000000000000000000000000082169050919050565b600073ffffffffffffffffffffffffffffffffffffffff82169050919050565b6000819050919050565b82818337600083830152505050565b60005b8381101561213657808201518184015260208101905061211b565b83811115612145576000848401525b50505050565b6000600282049050600182168061216357607f821691505b6020821081141561217757612176612286565b5b50919050565b612186826122e4565b810181811067ffffffffffffffff821117156121a5576121a46122b5565b5b80604052505050565b60006121b9826120ff565b91507fffffffffffffffffffffffffffffffffffffffffffffffffffffffffffffffff8214156121ec576121eb612228565b5b600182019050919050565b6000612202826120ff565b915061220d836120ff565b92508261221d5761221c612257565b5b828206905092915050565b7f4e487b7100000000000000000000000000000000000000000000000000000000600052601160045260246000fd5b7f4e487b7100000000000000000000000000000000000000000000000000000000600052601260045260246000fd5b7f4e487b7100000000000000000000000000000000000000000000000000000000600052602260045260246000fd5b7f4e487b7100000000000000000000000000000000000000000000000000000000600052604160045260246000fd5b6000601f19601f8301169050919050565b7f4552433732313a207472616e7366657220746f206e6f6e20455243373231526560008201527f63656976657220696d706c656d656e7465720000000000000000000000000000602082015250565b7f4552433732313a207472616e736665722066726f6d20696e636f72726563742060008201527f6f776e6572000000000000000000000000000000000000000000000000000000602082015250565b7f4552433732313a20746f6b656e20616c7265616479206d696e74656400000000600082015250565b7f4552433732313a207472616e7366657220746f20746865207a65726f2061646460008201527f7265737300000000000000000000000000000000000000000000000000000000602082015250565b7f4552433732313a20617070726f766520746f2063616c6c657200000000000000600082015250565b7f4552433732313a2061646472657373207a65726f206973206e6f74206120766160008201527f6c6964206f776e65720000000000000000000000000000000000000000000000602082015250565b7f4552433732313a20617070726f76652063616c6c6572206973206e6f7420746f60008201527f6b656e206f776e6572206e6f7220617070726f76656420666f7220616c6c0000602082015250565b7f4552433732313a206d696e7420746f20746865207a65726f2061646472657373600082015250565b7f4552433732313a20696e76616c696420746f6b656e2049440000000000000000600082015250565b7f4552433732313a20617070726f76616c20746f2063757272656e74206f776e6560008201527f7200000000000000000000000000000000000000000000000000000000000000602082015250565b7f4552433732313a2063616c6c6572206973206e6f7420746f6b656e206f776e6560008201527f72206e6f7220617070726f766564000000000000000000000000000000000000602082015250565b6125cb81612095565b81146125d657600080fd5b50565b6125e2816120a7565b81146125ed57600080fd5b50565b6125f9816120b3565b811461260457600080fd5b50565b612610816120ff565b811461261b57600080fd5b5056fea2646970667358221220b5afc3391eef3ed391f6b0df1eeaeb8d2ff442b7092da6bae7ed6ef9ef1251a264736f6c63430008040033",
  "linkReferences": {},
  "deployedLinkReferences": {}
}